{
  "contractName": "Voting",
  "abi": [
    {
      "anonymous": false,
      "inputs": [
        {
          "indexed": false,
          "internalType": "uint256",
          "name": "candidateId",
          "type": "uint256"
        }
      ],
      "name": "VoteCast",
      "type": "event"
    },
    {
      "inputs": [
        {
          "internalType": "uint256",
          "name": "",
          "type": "uint256"
        }
      ],
      "name": "candidates",
      "outputs": [
        {
          "internalType": "uint256",
          "name": "id",
          "type": "uint256"
        },
        {
          "internalType": "string",
          "name": "name",
          "type": "string"
        },
        {
          "internalType": "uint256",
          "name": "voteCount",
          "type": "uint256"
        }
      ],
      "stateMutability": "view",
      "type": "function",
      "constant": true
    },
    {
      "inputs": [
        {
          "internalType": "address",
          "name": "",
          "type": "address"
        }
      ],
      "name": "voters",
      "outputs": [
        {
          "internalType": "bool",
          "name": "",
          "type": "bool"
        }
      ],
      "stateMutability": "view",
      "type": "function",
      "constant": true
    },
    {
      "inputs": [
        {
          "internalType": "string",
          "name": "_name",
          "type": "string"
        }
      ],
      "name": "addCandidate",
      "outputs": [],
      "stateMutability": "nonpayable",
      "type": "function"
    },
    {
      "inputs": [
        {
          "internalType": "uint256",
          "name": "_candidateId",
          "type": "uint256"
        }
      ],
      "name": "castVote",
      "outputs": [],
      "stateMutability": "nonpayable",
      "type": "function"
    },
    {
      "inputs": [],
      "name": "getCandidateCount",
      "outputs": [
        {
          "internalType": "uint256",
          "name": "",
          "type": "uint256"
        }
      ],
      "stateMutability": "view",
      "type": "function",
      "constant": true
    },
    {
      "inputs": [
        {
          "internalType": "uint256",
          "name": "_candidateId",
          "type": "uint256"
        }
      ],
      "name": "getCandidateById",
      "outputs": [
        {
          "internalType": "uint256",
          "name": "",
          "type": "uint256"
        },
        {
          "internalType": "string",
          "name": "",
          "type": "string"
        },
        {
          "internalType": "uint256",
          "name": "",
          "type": "uint256"
        }
      ],
      "stateMutability": "view",
      "type": "function",
      "constant": true
    }
  ],
  "bytecode": "0x608060405234801561001057600080fd5b50610df3806100206000396000f3fe608060405234801561001057600080fd5b50600436106100625760003560e01c806330a56347146100675780633477ee2e146100855780633eb76b9c146100b7578063462e91ec146100d357806395f85022146100ef578063a3ec138d14610121575b600080fd5b61006f610151565b60405161007c91906105cc565b60405180910390f35b61009f600480360381019061009a9190610627565b61015d565b6040516100ae939291906106e4565b60405180910390f35b6100d160048036038101906100cc9190610627565b61021f565b005b6100ed60048036038101906100e89190610857565b6103cc565b005b61010960048036038101906101049190610627565b610447565b604051610118939291906106e4565b60405180910390f35b61013b600480360381019061013691906108fe565b610593565b6040516101489190610946565b60405180910390f35b60008080549050905090565b6000818154811061016d57600080fd5b906000526020600020906003020160009150905080600001549080600101805461019690610990565b80601f01602080910402602001604051908101604052809291908181526020018280546101c290610990565b801561020f5780601f106101e45761010080835404028352916020019161020f565b820191906000526020600020905b8154815290600101906020018083116101f257829003601f168201915b5050505050908060020154905083565b60008110158015610234575060008054905081105b610273576040517f08c379a000000000000000000000000000000000000000000000000000000000815260040161026a90610a0d565b60405180910390fd5b600160003373ffffffffffffffffffffffffffffffffffffffff1673ffffffffffffffffffffffffffffffffffffffff16815260200190815260200160002060009054906101000a900460ff1615610300576040517f08c379a00000000000000000000000000000000000000000000000000000000081526004016102f790610a79565b60405180910390fd5b6000818154811061031457610313610a99565b5b9060005260206000209060030201600201600081548092919061033690610af7565b919050555060018060003373ffffffffffffffffffffffffffffffffffffffff1673ffffffffffffffffffffffffffffffffffffffff16815260200190815260200160002060006101000a81548160ff0219169083151502179055507f9593d9bd30eff4872ec3bab10360ad82eaac80651801e68f47f0674c38415c3d816040516103c191906105cc565b60405180910390a150565b600060405180606001604052806000805490508152602001838152602001600081525090806001815401808255809150506001900390600052602060002090600302016000909190919091506000820151816000015560208201518160010190816104379190610ceb565b5060408201518160020155505050565b600060606000808410158015610461575060008054905084105b6104a0576040517f08c379a000000000000000000000000000000000000000000000000000000000815260040161049790610a0d565b60405180910390fd5b60008085815481106104b5576104b4610a99565b5b9060005260206000209060030201604051806060016040529081600082015481526020016001820180546104e890610990565b80601f016020809104026020016040519081016040528092919081815260200182805461051490610990565b80156105615780601f1061053657610100808354040283529160200191610561565b820191906000526020600020905b81548152906001019060200180831161054457829003601f168201915b505050505081526020016002820154815250509050806000015181602001518260400151935093509350509193909250565b60016020528060005260406000206000915054906101000a900460ff1681565b6000819050919050565b6105c6816105b3565b82525050565b60006020820190506105e160008301846105bd565b92915050565b6000604051905090565b600080fd5b600080fd5b610604816105b3565b811461060f57600080fd5b50565b600081359050610621816105fb565b92915050565b60006020828403121561063d5761063c6105f1565b5b600061064b84828501610612565b91505092915050565b600081519050919050565b600082825260208201905092915050565b60005b8381101561068e578082015181840152602081019050610673565b60008484015250505050565b6000601f19601f8301169050919050565b60006106b682610654565b6106c0818561065f565b93506106d0818560208601610670565b6106d98161069a565b840191505092915050565b60006060820190506106f960008301866105bd565b818103602083015261070b81856106ab565b905061071a60408301846105bd565b949350505050565b600080fd5b600080fd5b7f4e487b7100000000000000000000000000000000000000000000000000000000600052604160045260246000fd5b6107648261069a565b810181811067ffffffffffffffff821117156107835761078261072c565b5b80604052505050565b60006107966105e7565b90506107a2828261075b565b919050565b600067ffffffffffffffff8211156107c2576107c161072c565b5b6107cb8261069a565b9050602081019050919050565b82818337600083830152505050565b60006107fa6107f5846107a7565b61078c565b90508281526020810184848401111561081657610815610727565b5b6108218482856107d8565b509392505050565b600082601f83011261083e5761083d610722565b5b813561084e8482602086016107e7565b91505092915050565b60006020828403121561086d5761086c6105f1565b5b600082013567ffffffffffffffff81111561088b5761088a6105f6565b5b61089784828501610829565b91505092915050565b600073ffffffffffffffffffffffffffffffffffffffff82169050919050565b60006108cb826108a0565b9050919050565b6108db816108c0565b81146108e657600080fd5b50565b6000813590506108f8816108d2565b92915050565b600060208284031215610914576109136105f1565b5b6000610922848285016108e9565b91505092915050565b60008115159050919050565b6109408161092b565b82525050565b600060208201905061095b6000830184610937565b92915050565b7f4e487b7100000000000000000000000000000000000000000000000000000000600052602260045260246000fd5b600060028204905060018216806109a857607f821691505b6020821081036109bb576109ba610961565b5b50919050565b7f496e76616c69642063616e646964617465204944000000000000000000000000600082015250565b60006109f760148361065f565b9150610a02826109c1565b602082019050919050565b60006020820190508181036000830152610a26816109ea565b9050919050565b7f596f75206861766520616c726561647920766f74656400000000000000000000600082015250565b6000610a6360168361065f565b9150610a6e82610a2d565b602082019050919050565b60006020820190508181036000830152610a9281610a56565b9050919050565b7f4e487b7100000000000000000000000000000000000000000000000000000000600052603260045260246000fd5b7f4e487b7100000000000000000000000000000000000000000000000000000000600052601160045260246000fd5b6000610b02826105b3565b91507fffffffffffffffffffffffffffffffffffffffffffffffffffffffffffffffff8203610b3457610b33610ac8565b5b600182019050919050565b60008190508160005260206000209050919050565b60006020601f8301049050919050565b600082821b905092915050565b600060088302610ba17fffffffffffffffffffffffffffffffffffffffffffffffffffffffffffffffff82610b64565b610bab8683610b64565b95508019841693508086168417925050509392505050565b6000819050919050565b6000610be8610be3610bde846105b3565b610bc3565b6105b3565b9050919050565b6000819050919050565b610c0283610bcd565b610c16610c0e82610bef565b848454610b71565b825550505050565b600090565b610c2b610c1e565b610c36818484610bf9565b505050565b5b81811015610c5a57610c4f600082610c23565b600181019050610c3c565b5050565b601f821115610c9f57610c7081610b3f565b610c7984610b54565b81016020851015610c88578190505b610c9c610c9485610b54565b830182610c3b565b50505b505050565b600082821c905092915050565b6000610cc260001984600802610ca4565b1980831691505092915050565b6000610cdb8383610cb1565b9150826002028217905092915050565b610cf482610654565b67ffffffffffffffff811115610d0d57610d0c61072c565b5b610d178254610990565b610d22828285610c5e565b600060209050601f831160018114610d555760008415610d43578287015190505b610d4d8582610ccf565b865550610db5565b601f198416610d6386610b3f565b60005b82811015610d8b57848901518255600182019150602085019450602081019050610d66565b86831015610da85784890151610da4601f891682610cb1565b8355505b6001600288020188555050505b50505050505056fea264697066735822122074019608f75c2c0a9ef5a0e988606836041742995c93f9e3ab7254630c259acb64736f6c63430008110033",
  "immutableReferences": {},
  "source": "pragma solidity ^0.8.0;\r\n\r\ncontract Voting {\r\n    struct Candidate {\r\n        uint id;\r\n        string name;\r\n        uint voteCount;\r\n    }\r\n\r\n    Candidate[] public candidates;\r\n\r\n    mapping(address => bool) public voters;\r\n\r\n    event VoteCast(uint candidateId);\r\n\r\n    function addCandidate(string memory _name) public {\r\n        candidates.push(Candidate(candidates.length, _name, 0));\r\n    }\r\n\r\n    function castVote(uint _candidateId) public {\r\n        require(\r\n            _candidateId >= 0 && _candidateId < candidates.length,\r\n            \"Invalid candidate ID\"\r\n        );\r\n        require(!voters[msg.sender], \"You have already voted\");\r\n        candidates[_candidateId].voteCount++;\r\n        voters[msg.sender] = true;\r\n        emit VoteCast(_candidateId);\r\n    }\r\n\r\n    function getCandidateCount() public view returns (uint) {\r\n        return candidates.length;\r\n    }\r\n\r\n    function getCandidateById(\r\n        uint _candidateId\r\n    ) public view returns (uint, string memory, uint) {\r\n        require(\r\n            _candidateId >= 0 && _candidateId < candidates.length,\r\n            \"Invalid candidate ID\"\r\n        );\r\n        Candidate memory candidate = candidates[_candidateId];\r\n        return (candidate.id, candidate.name, candidate.voteCount);\r\n    }\r\n}\r\n",
  "sourcePath": "C:\\Users\\ajsty\\OneDrive\\Desktop\\VS_Code\\Voting-System\\dvoting\\src\\contracts\\Voting.sol",
  "compiler": {
    "name": "solc",
    "version": "0.8.17+commit.8df45f5f.Emscripten.clang"
  },
  "schemaVersion": "3.4.11",
  "updatedAt": "2023-04-15T16:10:47.372Z",
  "networkType": "ethereum",
  "devdoc": {
    "kind": "dev",
    "methods": {},
    "version": 1
  },
  "userdoc": {
    "kind": "user",
    "methods": {},
    "version": 1
  }
}