{
  "contractName": "Voting_System",
  "abi": [
    {
      "inputs": [],
      "stateMutability": "nonpayable",
      "type": "constructor"
    },
    {
      "anonymous": false,
      "inputs": [
        {
          "indexed": true,
          "internalType": "uint256",
          "name": "candidate",
          "type": "uint256"
        },
        {
          "indexed": false,
          "internalType": "string",
          "name": "name",
          "type": "string"
        }
      ],
      "name": "CandidateCreated",
      "type": "event"
    },
    {
      "anonymous": false,
      "inputs": [
        {
          "indexed": true,
          "internalType": "string",
          "name": "name",
          "type": "string"
        }
      ],
      "name": "VoteCast",
      "type": "event"
    },
    {
      "anonymous": false,
      "inputs": [
        {
          "indexed": true,
          "internalType": "uint256",
          "name": "vote_count",
          "type": "uint256"
        }
      ],
      "name": "VoteCount",
      "type": "event"
    },
    {
      "anonymous": false,
      "inputs": [
        {
          "indexed": true,
          "internalType": "uint256",
          "name": "voter",
          "type": "uint256"
        },
        {
          "indexed": false,
          "internalType": "string",
          "name": "name",
          "type": "string"
        },
        {
          "indexed": false,
          "internalType": "string",
          "name": "voterid",
          "type": "string"
        }
      ],
      "name": "VoterCreated",
      "type": "event"
    },
    {
      "inputs": [],
      "name": "votes_",
      "outputs": [
        {
          "internalType": "uint256",
          "name": "",
          "type": "uint256"
        }
      ],
      "stateMutability": "view",
      "type": "function",
      "constant": true
    },
    {
      "inputs": [
        {
          "internalType": "uint256",
          "name": "voter_id",
          "type": "uint256"
        }
      ],
      "name": "verification_voter",
      "outputs": [],
      "stateMutability": "nonpayable",
      "type": "function"
    },
    {
      "inputs": [
        {
          "internalType": "uint256",
          "name": "candidate_id",
          "type": "uint256"
        }
      ],
      "name": "verification_candidate",
      "outputs": [],
      "stateMutability": "nonpayable",
      "type": "function"
    },
    {
      "inputs": [
        {
          "internalType": "string",
          "name": "name",
          "type": "string"
        },
        {
          "internalType": "string",
          "name": "voterid",
          "type": "string"
        }
      ],
      "name": "create_voter",
      "outputs": [],
      "stateMutability": "nonpayable",
      "type": "function"
    },
    {
      "inputs": [
        {
          "internalType": "string",
          "name": "name",
          "type": "string"
        }
      ],
      "name": "create_candidate",
      "outputs": [],
      "stateMutability": "nonpayable",
      "type": "function"
    },
    {
      "inputs": [
        {
          "internalType": "uint256",
          "name": "candidate_id",
          "type": "uint256"
        },
        {
          "internalType": "uint256",
          "name": "voter_id",
          "type": "uint256"
        }
      ],
      "name": "number_votes",
      "outputs": [
        {
          "internalType": "uint256",
          "name": "",
          "type": "uint256"
        }
      ],
      "stateMutability": "nonpayable",
      "type": "function"
    },
    {
      "inputs": [
        {
          "internalType": "uint256",
          "name": "candidate_id",
          "type": "uint256"
        },
        {
          "internalType": "uint256",
          "name": "voter_id",
          "type": "uint256"
        }
      ],
      "name": "cast_vote",
      "outputs": [],
      "stateMutability": "nonpayable",
      "type": "function"
    }
  ],
  "bytecode": "0x608060405260006001556000600255600060035534801561001f57600080fd5b50336000806101000a81548173ffffffffffffffffffffffffffffffffffffffff021916908373ffffffffffffffffffffffffffffffffffffffff16021790555061129b8061006f6000396000f3fe608060405234801561001057600080fd5b506004361061007d5760003560e01c80639cd19f1f1161005b5780639cd19f1f146100ea578063b43ab4d514610106578063d9c499ac14610122578063e513822b1461013e5761007d565b80634f34e821146100825780638aff35671461009e57806395249066146100ce575b600080fd5b61009c600480360381019061009791906109c9565b61015c565b005b6100b860048036038101906100b39190610a77565b61026b565b6040516100c59190610ac6565b60405180910390f35b6100e860048036038101906100e39190610ae1565b6103a2565b005b61010460048036038101906100ff9190610b2a565b610487565b005b610120600480360381019061011b9190610b2a565b6105b1565b005b61013c60048036038101906101379190610a77565b6106db565b005b610146610869565b6040516101539190610ac6565b60405180910390f35b60008060405180608001604052808581526020018481526020016000935083151581526020016000925082151581525060046000600154815260200190815260200160002060008201518160000190816101b69190610d6e565b5060208201518160010190816101cc9190610d6e565b5060408201518160020160006101000a81548160ff02191690831515021790555060608201518160020160016101000a81548160ff02191690831515021790555090505060018060008282546102229190610e6f565b925050819055506001547fe4ffe3081e724a98f79495a0b26837a951447b20041c8ed6075afc978561e4d6858560405161025d929190610f17565b60405180910390a250505050565b60008060009054906101000a900473ffffffffffffffffffffffffffffffffffffffff1673ffffffffffffffffffffffffffffffffffffffff163373ffffffffffffffffffffffffffffffffffffffff16146102fc576040517f08c379a00000000000000000000000000000000000000000000000000000000081526004016102f390610f9a565b60405180910390fd5b600115156005600085815260200190815260200160002060010160009054906101000a900460ff16151514610366576040517f08c379a000000000000000000000000000000000000000000000000000000000815260040161035d90611006565b60405180910390fd5b60056000848152602001908152602001600020600201546003819055506005600084815260200190815260200160002060020154905092915050565b6000806040518060600160405280848152602001600093508315158152602001600092508281525060056000600254815260200190815260200160002060008201518160000190816103f49190610d6e565b5060208201518160010160006101000a81548160ff021916908315150217905550604082015181600201559050506001600260008282546104359190610e6f565b92505081905550600160025461044b9190611026565b7f78d27a3c512303f604b46bc28acc0ca45abe6420172a017c5a6dc585821eb6398460405161047a919061105a565b60405180910390a2505050565b60008054906101000a900473ffffffffffffffffffffffffffffffffffffffff1673ffffffffffffffffffffffffffffffffffffffff163373ffffffffffffffffffffffffffffffffffffffff1614610515576040517f08c379a000000000000000000000000000000000000000000000000000000000815260040161050c90610f9a565b60405180910390fd5b600015156005600083815260200190815260200160002060010160009054906101000a900460ff1615151461057f576040517f08c379a0000000000000000000000000000000000000000000000000000000008152600401610576906110c8565b60405180910390fd5b60016005600083815260200190815260200160002060010160006101000a81548160ff02191690831515021790555050565b60008054906101000a900473ffffffffffffffffffffffffffffffffffffffff1673ffffffffffffffffffffffffffffffffffffffff163373ffffffffffffffffffffffffffffffffffffffff161461063f576040517f08c379a000000000000000000000000000000000000000000000000000000000815260040161063690610f9a565b60405180910390fd5b600015156004600083815260200190815260200160002060020160009054906101000a900460ff161515146106a9576040517f08c379a00000000000000000000000000000000000000000000000000000000081526004016106a0906110c8565b60405180910390fd5b60016004600083815260200190815260200160002060020160006101000a81548160ff02191690831515021790555050565b80600115156004600083815260200190815260200160002060020160009054906101000a900460ff16151514610746576040517f08c379a000000000000000000000000000000000000000000000000000000000815260040161073d90611134565b60405180910390fd5b600015156004600084815260200190815260200160002060020160019054906101000a900460ff161515146107b0576040517f08c379a00000000000000000000000000000000000000000000000000000000081526004016107a7906111a0565b60405180910390fd5b60016005600085815260200190815260200160002060020160008282546107d79190610e6f565b9250508190555060016004600084815260200190815260200160002060020160016101000a81548160ff02191690831515021790555060046000838152602001908152602001600020600001604051610830919061124e565b60405180910390207fdd4c99251f425e725972ff09e5348689020fce09b3b010f8573d992fe79afcf160405160405180910390a2505050565b60035481565b6000604051905090565b600080fd5b600080fd5b600080fd5b600080fd5b6000601f19601f8301169050919050565b7f4e487b7100000000000000000000000000000000000000000000000000000000600052604160045260246000fd5b6108d68261088d565b810181811067ffffffffffffffff821117156108f5576108f461089e565b5b80604052505050565b600061090861086f565b905061091482826108cd565b919050565b600067ffffffffffffffff8211156109345761093361089e565b5b61093d8261088d565b9050602081019050919050565b82818337600083830152505050565b600061096c61096784610919565b6108fe565b90508281526020810184848401111561098857610987610888565b5b61099384828561094a565b509392505050565b600082601f8301126109b0576109af610883565b5b81356109c0848260208601610959565b91505092915050565b600080604083850312156109e0576109df610879565b5b600083013567ffffffffffffffff8111156109fe576109fd61087e565b5b610a0a8582860161099b565b925050602083013567ffffffffffffffff811115610a2b57610a2a61087e565b5b610a378582860161099b565b9150509250929050565b6000819050919050565b610a5481610a41565b8114610a5f57600080fd5b50565b600081359050610a7181610a4b565b92915050565b60008060408385031215610a8e57610a8d610879565b5b6000610a9c85828601610a62565b9250506020610aad85828601610a62565b9150509250929050565b610ac081610a41565b82525050565b6000602082019050610adb6000830184610ab7565b92915050565b600060208284031215610af757610af6610879565b5b600082013567ffffffffffffffff811115610b1557610b1461087e565b5b610b218482850161099b565b91505092915050565b600060208284031215610b4057610b3f610879565b5b6000610b4e84828501610a62565b91505092915050565b600081519050919050565b7f4e487b7100000000000000000000000000000000000000000000000000000000600052602260045260246000fd5b60006002820490506001821680610ba957607f821691505b602082108103610bbc57610bbb610b62565b5b50919050565b60008190508160005260206000209050919050565b60006020601f8301049050919050565b600082821b905092915050565b600060088302610c247fffffffffffffffffffffffffffffffffffffffffffffffffffffffffffffffff82610be7565b610c2e8683610be7565b95508019841693508086168417925050509392505050565b6000819050919050565b6000610c6b610c66610c6184610a41565b610c46565b610a41565b9050919050565b6000819050919050565b610c8583610c50565b610c99610c9182610c72565b848454610bf4565b825550505050565b600090565b610cae610ca1565b610cb9818484610c7c565b505050565b5b81811015610cdd57610cd2600082610ca6565b600181019050610cbf565b5050565b601f821115610d2257610cf381610bc2565b610cfc84610bd7565b81016020851015610d0b578190505b610d1f610d1785610bd7565b830182610cbe565b50505b505050565b600082821c905092915050565b6000610d4560001984600802610d27565b1980831691505092915050565b6000610d5e8383610d34565b9150826002028217905092915050565b610d7782610b57565b67ffffffffffffffff811115610d9057610d8f61089e565b5b610d9a8254610b91565b610da5828285610ce1565b600060209050601f831160018114610dd85760008415610dc6578287015190505b610dd08582610d52565b865550610e38565b601f198416610de686610bc2565b60005b82811015610e0e57848901518255600182019150602085019450602081019050610de9565b86831015610e2b5784890151610e27601f891682610d34565b8355505b6001600288020188555050505b505050505050565b7f4e487b7100000000000000000000000000000000000000000000000000000000600052601160045260246000fd5b6000610e7a82610a41565b9150610e8583610a41565b9250828201905080821115610e9d57610e9c610e40565b5b92915050565b600082825260208201905092915050565b60005b83811015610ed2578082015181840152602081019050610eb7565b60008484015250505050565b6000610ee982610b57565b610ef38185610ea3565b9350610f03818560208601610eb4565b610f0c8161088d565b840191505092915050565b60006040820190508181036000830152610f318185610ede565b90508181036020830152610f458184610ede565b90509392505050565b7f46756e6374696f6e204f6e6c794f776e65720000000000000000000000000000600082015250565b6000610f84601283610ea3565b9150610f8f82610f4e565b602082019050919050565b60006020820190508181036000830152610fb381610f77565b9050919050565b7f4e6f7420612076657269666965642043616e6469646174650000000000000000600082015250565b6000610ff0601883610ea3565b9150610ffb82610fba565b602082019050919050565b6000602082019050818103600083015261101f81610fe3565b9050919050565b600061103182610a41565b915061103c83610a41565b925082820390508181111561105457611053610e40565b5b92915050565b600060208201905081810360008301526110748184610ede565b905092915050565b7f416c726561647920566572696669656400000000000000000000000000000000600082015250565b60006110b2601083610ea3565b91506110bd8261107c565b602082019050919050565b600060208201905081810360008301526110e1816110a5565b9050919050565b7f566f746572206e6f742056657269666965640000000000000000000000000000600082015250565b600061111e601283610ea3565b9150611129826110e8565b602082019050919050565b6000602082019050818103600083015261114d81611111565b9050919050565b7f416c726561647920566f74656400000000000000000000000000000000000000600082015250565b600061118a600d83610ea3565b915061119582611154565b602082019050919050565b600060208201905081810360008301526111b98161117d565b9050919050565b600081905092915050565b600081546111d881610b91565b6111e281866111c0565b945060018216600081146111fd576001811461121257611245565b60ff1983168652811515820286019350611245565b61121b85610bc2565b60005b8381101561123d5781548189015260018201915060208101905061121e565b838801955050505b50505092915050565b600061125a82846111cb565b91508190509291505056fea26469706673582212208b555171b870646d45a231df8faf0ea2f3df765c4079070f63caa73da9ad406264736f6c63430008110033",
  "immutableReferences": {},
  "source": "// SPDX-License-Identifier: MIT\r\npragma solidity 0.8.17;\r\n\r\ncontract Voting_System {\r\n    address private owner;\r\n    uint256 private voter_id = 0;\r\n    uint256 private candidate_id = 0;\r\n    uint256 public votes_ = 0;\r\n    struct Voter {\r\n        string name;\r\n        string voterid;\r\n        bool verification;\r\n        bool vote_status;\r\n    }\r\n    mapping(uint256 => Voter) private voters;\r\n\r\n    struct Candidate {\r\n        string name;\r\n        bool verification;\r\n        uint256 vote_count;\r\n    }\r\n    mapping(uint256 => Candidate) private candidates;\r\n\r\n    struct Votes {\r\n        uint256 votes;\r\n    }\r\n    mapping(uint256 => Votes) private n_votes;\r\n\r\n    event VoterCreated(uint256 indexed voter, string name, string voterid);\r\n    event CandidateCreated(uint256 indexed candidate, string name);\r\n    event VoteCast(string indexed name);\r\n    event VoteCount(uint256 indexed vote_count);\r\n\r\n    constructor() {\r\n        owner = msg.sender;\r\n    }\r\n\r\n    modifier onlyOwner() {\r\n        require(msg.sender == owner, \"Function OnlyOwner\");\r\n        _;\r\n    }\r\n    modifier verified_voter(uint256 id) {\r\n        require(voters[id].verification == true, \"Voter not Verified\");\r\n        _;\r\n    }\r\n    modifier verified_candidate(uint256 id) {\r\n        require(candidates[id].verification == true, \"Candidate Not Verified \");\r\n        _;\r\n    }\r\n\r\n    function verification_voter(uint256 voter_id) public onlyOwner {\r\n        require(voters[voter_id].verification == false, \"Already Verified\");\r\n        voters[voter_id].verification = true;\r\n    }\r\n\r\n    function verification_candidate(uint256 candidate_id) public onlyOwner {\r\n        require(candidates[candidate_id].verification == false, \"Already Verified\");\r\n        candidates[candidate_id].verification = true;\r\n    }\r\n\r\n    function create_voter(string memory name, string memory voterid) public {\r\n        bool verification;\r\n        bool vote_status;\r\n        voters[voter_id] = Voter(\r\n            name,\r\n            voterid,\r\n            verification = false,\r\n            vote_status = false\r\n        );\r\n        voter_id += 1;\r\n        emit VoterCreated(voter_id, name, voterid);\r\n    }\r\n\r\n    function create_candidate(string memory name) public {\r\n        bool verification;\r\n        uint256 vote_count;\r\n        candidates[candidate_id] = Candidate(\r\n            name,\r\n            verification = false,\r\n            vote_count = 0\r\n        );\r\n        candidate_id += 1;\r\n        emit CandidateCreated(candidate_id - 1, name);\r\n    }\r\n\r\n    function number_votes(uint256 candidate_id, uint256 voter_id)\r\n        public\r\n        onlyOwner\r\n        returns (uint256)\r\n    {\r\n        require(\r\n            candidates[candidate_id].verification == true,\r\n            \"Not a verified Candidate\"\r\n        );\r\n        votes_ = candidates[candidate_id].vote_count;\r\n        return (candidates[candidate_id].vote_count);\r\n        emit VoteCount(candidates[candidate_id].vote_count);\r\n    }\r\n\r\n    function cast_vote(uint256 candidate_id, uint256 voter_id)\r\n        public\r\n        verified_voter(voter_id)\r\n    {\r\n        require(voters[voter_id].vote_status == false, \"Already Voted\");\r\n        candidates[candidate_id].vote_count += 1;\r\n        voters[voter_id].vote_status = true;\r\n        emit VoteCast(voters[voter_id].name);\r\n    }\r\n}\r\n",
  "sourcePath": "C:\\Users\\ajsty\\OneDrive\\Desktop\\VS_Code\\Voting-System\\dvoting\\src\\contracts\\Voting_System.sol",
  "compiler": {
    "name": "solc",
    "version": "0.8.17+commit.8df45f5f.Emscripten.clang"
  },
  "schemaVersion": "3.4.11",
  "updatedAt": "2023-04-13T16:24:36.347Z",
  "networkType": "ethereum",
  "devdoc": {
    "kind": "dev",
    "methods": {},
    "version": 1
  },
  "userdoc": {
    "kind": "user",
    "methods": {},
    "version": 1
  }
}